:100000000C9462000C948A000C948A000C948A0070
:100010000C948A000C948A000C948A000C948A0038
:100020000C948A000C948A000C948A000C948A0028
:100030000C948A000C948A000C948A000C948A0018
:100040000C9445020C948A000C94B5020C948F0217
:100050000C948A000C948A000C948A000C948A00F8
:100060000C948A000C948A000000000024002700F1
:100070002A0000000000250028002B0000000000DE
:1000800023002600290004040404040404040202DA
:100090000202020203030303030301020408102007
:1000A0004080010204081020010204081020000012
:1000B0000008000201000003040700000000000027
:1000C0000000E50311241FBECFEFD8E0DEBFCDBF97
:1000D00011E0A0E0B1E0E4E3F8E002C005900D9289
:1000E000AC32B107D9F721E0ACE2B1E001C01D921A
:1000F000A23DB207E1F710E0C2E6D0E004C02197CC
:10010000FE010E941204C136D107C9F70E94E7021E
:100110000C9418040C940000AF92BF92CF92DF921F
:10012000EF92FF920F931F93CF93DF936C017B01AC
:100130008B01040F151FEB015E01AE18BF08C0173D
:10014000D10759F06991D601ED91FC910190F081B0
:10015000E02DC6010995892B79F7C501DF91CF9173
:100160001F910F91FF90EF90DF90CF90BF90AF90D5
:100170000895FC01538D448D252F30E0842F90E0AD
:10018000821B930B541710F0CF9608950197089592
:10019000FC01918D828D981761F0A28DAE0FBF2F5B
:1001A000B11D5D968C91928D9F5F9F73928F90E0B1
:1001B00008958FEF9FEF0895FC01918D828D981720
:1001C00031F0828DE80FF11D858D90E008958FEF5D
:1001D0009FEF0895FC01918D228D892F90E0805C26
:1001E0009F4F821B91098F73992708958CE291E0AC
:1001F0000E94EA0021E0892B09F420E0822F089573
:1002000080E090E0892B29F00E94F60081110C9487
:1002100000000895FC01A48DA80FB92FB11DA35AA9
:10022000BF4F2C91848D90E001968F739927848F16
:10023000A689B7892C93A089B1898C918370806439
:100240008C93938D848D981306C00288F389E02DDA
:1002500080818F7D80830895EF92FF920F931F938B
:10026000CF93DF93EC0181E0888F9B8D8C8D981369
:100270001AC0E889F989808185FF15C09FB7F89475
:10028000EE89FF896083E889F989808183708064C1
:1002900080839FBF81E090E0DF91CF911F910F910C
:1002A000FF90EF900895F62E0B8D10E00F5F1F4F1B
:1002B0000F731127E02E8C8D8E110CC00FB607FC2A
:1002C000FACFE889F989808185FFF5CFCE010E94B8
:1002D0000A01F1CFEB8DEC0FFD2FF11DE35AFF4F1B
:1002E000F0829FB7F8940B8FEA89FB898081806246
:1002F000CFCFCF93DF93EC01888D8823B9F0AA8903
:10030000BB89E889F9898C9185FD03C0808186FDD0
:100310000DC00FB607FCF7CF8C9185FFF2CF80811F
:1003200085FFEDCFCE010E940A01E9CFDF91CF9189
:100330000895833081F028F4813099F08230A9F05B
:1003400008958730A9F08830C9F08430B1F48091E5
:1003500080008F7D03C0809180008F778093800024
:10036000089584B58F7784BD089584B58F7DFBCFC4
:100370008091B0008F778093B00008958091B00095
:100380008F7DF9CFCF93DF93E5EBF0E08491E1EA45
:10039000F0E0D491EDE8F0E0C491CC23A1F081111C
:1003A0000E949901EC2FF0E0EE0FFF1FE458FF4F81
:1003B000A591B491EC91ED2381E090E009F480E007
:1003C000DF91CF91089580E090E0FACF1F93CF9313
:1003D000DF93282F30E0F901E255FF4F8491F901B6
:1003E000E656FF4FD491F901EA57FF4FC491CC2351
:1003F000A9F0162F81110E949901EC2FF0E0EE0F69
:10040000FF1FEE58FF4FA591B4918FB7F894EC9170
:10041000111108C0D095DE23DC938FBFDF91CF91FF
:100420001F910895DE2BF8CFCF93DF9390E0FC016E
:10043000E656FF4F24918A579F4FFC0184918823F1
:10044000D1F090E0880F991FFC01E859FF4FA5916A
:10045000B491FC01EE58FF4FC591D49161110EC0CB
:100460009FB7F8948C91E22FE0958E238C9328818E
:10047000E223E8839FBFDF91CF9108958FB7F8946F
:10048000EC91E22BEC938FBFF6CF1F920F920FB639
:100490000F9211242F933F938F939F93AF93BF930A
:1004A0008091CE019091CF01A091D001B091D10166
:1004B0003091CD0123E0230F2D3758F50196A11D72
:1004C000B11D2093CD018093CE019093CF01A093D5
:1004D000D001B093D1018091C9019091CA01A0913E
:1004E000CB01B091CC010196A11DB11D8093C90132
:1004F0009093CA01A093CB01B093CC01BF91AF916F
:100500009F918F913F912F910F900FBE0F901F9051
:10051000189526E8230F0296A11DB11DD2CF1F9278
:100520000F920FB60F9211242F933F934F935F9327
:100530006F937F938F939F93AF93BF93EF93FF93AB
:100540008CE291E00E940A01FF91EF91BF91AF917F
:100550009F918F917F916F915F914F913F912F91DB
:100560000F900FBE0F901F9018951F920F920FB60D
:100570000F9211242F938F939F93EF93FF93E0910A
:100580003C01F0913D018081E0914201F0914301F5
:1005900082FD1BC09081809145018F5F8F732091F8
:1005A0004601821741F0E0914501F0E0E45DFE4F25
:1005B000958F80934501FF91EF919F918F912F919E
:1005C0000F900FBE0F901F9018958081F4CF7894F4
:1005D00084B5826084BD84B5816084BD85B5826048
:1005E00085BD85B5816085BD80916E0081608093F9
:1005F0006E00109281008091810082608093810062
:100600008091810081608093810080918000816071
:10061000809380008091B10084608093B1008091CC
:10062000B00081608093B00080917A0084608093F4
:100630007A0080917A00826080937A0080917A00BB
:10064000816080937A0080917A00806880937A003C
:100650001092C10061E08DE00E94140260E087E02A
:100660000E94140260E08DE00E94E60161E08BE0F0
:100670000E941402E9EBF0E0E491E33009F487C052
:1006800050F4E130E1F0E23009F47BC060E08BE04F
:100690000E94E60119C0E73009F485C0E83009F48A
:1006A0008BC0E43099F78091800080628093800055
:1006B00084E690E090938B0080938A0005C084B517
:1006C000806884BD84E687BDE0913C01F0913D01E6
:1006D00082E08083E0913801F09139011082E0914D
:1006E0003A01F0913B0180E1808310924401E09156
:1006F0004001F091410186E08083E0913E01F0915C
:100700003F01808180618083E0913E01F0913F0153
:10071000808188608083E0913E01F0913F0180817B
:1007200080688083E0913E01F0913F0180818F7D60
:10073000808346E150E062E171E08CE291E00E944A
:100740008C0042E050E069E271E08CE291E00E94AE
:100750008C00C0E0D0E00E94C20161E0019729F066
:100760000E94C201892B21F460E08DE00E94E60125
:10077000209789F30E94F600882369F30E94000005
:10078000EACF84B5806284BD84E688BD9DCF809128
:10079000800080688093800084E690E090938900D8
:1007A0008093880091CF8091B00080688093B000E2
:1007B00084E68093B30088CF8091B00080628093FC
:1007C000B00084E68093B4007FCFECE2F1E01382C6
:1007D000128288EE93E0A0E0B0E084839583A68344
:1007E000B78384E091E09183808385EC90E09587E6
:1007F000848784EC90E09787868780EC90E0918BEB
:10080000808B81EC90E0938B828B82EC90E0958BD7
:10081000848B86EC90E0978B868B118E128E138ED4
:10082000148E0895EE0FFF1F0590F491E02D0994AA
:04083000F894FFCF6A
:10083400000000002C018C00B9007901EA00C80016
:10084400DC0050726F6772616D206973207374618C
:0C0854007274696E672E2E2E000D0A00D3
:00000001FF
